:020000040000FA
:100000000A128A11EC2F00308A000408840A820741
:1000100000340034003480343F34183472343134C6
:100020003F34F034FD3475343E344734583463344F
:100030003D34583495341D343C348234C434AE34A9
:100040003A34A834783421343934EF34933480345A
:100050003734A0349234A73435344634563415340A
:1000600034340034003400340034C434FF347F347A
:100070003F348034EF34FF34BE349034E134A9345B
:100080003E34EC3482347634BE348234AD342B3496
:100090003E340E343C34C334BD348734D13413344D
:0A00A0003D3441347834D334BB34CE
:100E6800C034F934A434B034993492348234F83428
:100E78008034903442300A128A1160270A128A118B
:100E880042300A128A1195270A128A110A128A1107
:100E980000287E088A007F0882000A128A114D27DE
:100EA8000A128A118000840A04087D060319003496
:100EB800FF0A0319FE0A512FF2007E2F831603132F
:100EC8008501831203138501942F8316031386016A
:100ED800831203138601942F831603138701831249
:100EE80003138701942F83160313880183120313B6
:100EF8008801942F7208F000F1017108003A031973
:100F0800862F942F7008413A0319622F033A031968
:100F1800692F013A0319702F073A0319772F942F75
:100F28000800F300F4010A307402031C9C2F9D2F63
:100F3800C32FF401C32F7408203E840083130008D4
:100F4800831203138500D92F7408203E840083136D
:100F58000008831203138600D92F7408203E8400EA
:100F680083130008831203138700D92F7408203EC7
:100F7800840083130008831203138800D92F730891
:100F8800F000F1017108003A0319CB2FD92F70082E
:100F9800413A03199F2F033A0319A82F013A03195D
:100FA800B12F073A0319BA2FD92F0330F2008A302C
:100FB800F1005530F000F00BDF2FF10BDF2FF20BB3
:100FC800DF2FE62F0130F0007008F407972F080094
:100FD80083132A30FD000730FE003430FF00203034
:100FE80084000A128A1151270A128A11F501F601A2
:080FF80083010A128A113E2F49
:02400E00F93F78
:00000001FF
